:020000040800F2
:10000000F014002001010008371500082114000831
:100010003515000849010008871A00080000000093
:10002000000000000000000000000000C5170008EC
:100030004B0100080000000025170008C717000842
:100040001B0100081B0100081B0100081B01000820
:100050001B0100081B0100081B0100081B01000810
:100060001B0100081B0100081B0100081B01000800
:100070001B0100081B0100081B0100081B010008F0
:100080001B0100081B0100081B0100081B010008E0
:100090001B0100081B0100081B0100081B010008D0
:1000A0001B0100081B0100081B0100081B010008C0
:1000B0001B0100081B0100081B0100081B010008B0
:1000C0001B0100081B0100081B0100081B010008A0
:1000D0001B0100081B0100081B0100081B01000890
:1000E0001B0100081B0100081B010008DFF80CD0F1
:1000F00000F018F800480047F11A0008F01400203A
:100100000648804706480047FEE7FEE7FEE7FEE7B1
:10011000FEE7FEE7FEE7FEE7FEE7FEE73D18000824
:10012000ED000008064C074D06E0E06840F00103D2
:1001300094E8070098471034AC42F6D3FFF7DAFF93
:10014000B8200008D8200008FEE77047F8B504463C
:1001500040690F46401E0090236900221146204648
:100160005B1E00F02CF9002517E02A4600212046EE
:1001700000F051F92421204600F0A7F8002604E001
:100180003946204600F0ACF8761C2069C11700EB18
:100190005170B6EBE00FF3DB6D1C6069A842E4DC44
:1001A000F8BD084600F061B910B50446222100F000
:1001B0008CF8C421204600F093F82021204600F05E
:1001C00084F8FF21204600F080F82046BDE810406A
:1001D00000F03FB970B50446012020600220606045
:1001E0000020A0600320E06080202061FA200D46FE
:1001F000606100F05DF910B14FF0FF3070BD204636
:10020000A56100F050F80121204600F05EF8F921C8
:10021000204600F065F80021204600F061F800213A
:10022000204600F05DF80C21204600F04EF8D72162
:10023000204600F055F8D621204600F051F89D21C7
:10024000204600F04DF82C21204600F03EF8A82171
:10025000204600F045F83A21204600F036F81A21F1
:10026000204600F03DF83B21204600F02EF8082102
:10027000204600F035F81121204600F026F8032131
:10028000204600F02DF825463221204600F01DF8CA
:100290000024A869015D284600F022F8641C1E2C89
:1002A000F7DB002070BD10B504460068002100F0A7
:1002B000EFF8C82000F0D9F80121206800F0E8F834
:1002C000BDE81040C82000F0D0B810B50C4640681A
:1002D000002100F0DDF82046BDE8104000F000B934
:1002E00010B50C464068012100F0D2F82046BDE868
:1002F000104000F0F5B82DE9FF4F83B09846DDE9D6
:100300001001049B002B57D0002A55DB002853DB3B
:10031000B8F1000F50DB00294EDB00F0F80903981C
:1003200002F0F80B0BEB09040069844201DB441E68
:1003300000E0641E08EB010003994D69A84201DB4F
:100340006D1E00E0451E234642465946009503981F
:1003500000F035F846462DE032465946039800F045
:100360005AF824210398FFF7B0FF4FEAEB710BEB2B
:100370005170C7100290A6EB080001904FEAE97097
:1003800009EB5070C0100090E01704EB507A0DE0BC
:100390000298A7EBE00104980A18DDE9001000FBC1
:1003A000012001780398FFF79BFF7F1CB7EBEA0F52
:1003B000EEDD761CAE42CFDD07B0BDE8F08F2DE953
:1003C000F0410F461E46144680464421069DFFF725
:1003D0007CFFC7F3C7014046FFF782FFC6F3C701A2
:1003E0004046FFF77DFF45214046FFF76EFFE1B233
:1003F0004046FFF775FFC4F307214046FFF770FF43
:10040000E9B24046FFF76CFFC5F307214046BDE85F
:10041000F041FFF765BF70B50D46144606464E2104
:10042000FFF753FFC5F3C7013046FFF759FF4F21D0
:100430003046FFF74AFFE1B23046FFF751FFC4F301
:1004400007213046FFF74CFF3046BDE87040AFF360
:10045000008010B5044602E0642000F006F8E06871
:1004600000F006F80128F7D010BD00F053B80000E6
:10047000064A10B502EBC00152F83000898889B2F3
:1004800000F032F9012800D0002010BD3800002013
:10049000064B012903EBC00253F83000526891B2B9
:1004A00002D0002200F025B90122FBE7380000202D
:1004B0000A480949D0E90023C1E90023D0E9022311
:1004C000C1E90223D0E90423C1E90423D0E90620CD
:1004D000C1E90620002070473800002000000020FD
:1004E00031B50A4C0022A08881B2206800F001F9E1
:1004F0004FF47A7301226946054800F007FEA08890
:10050000012281B2206800F0F4F838BD38000020E4
:100510005804002031B500F0F1F8044600F0EEF880
:100520000099001B8842F9D338BD00002DE9F84F2F
:10053000DFF890A100220AF1040B144601274FF0C6
:100540000F090BF1040E00BF0B6807FA04F52B40EE
:10055000AB4274D1DFF870C14E68A6EB0C0866455B
:100560002BD00DDC032E34D005DC36B3012E19D090
:10057000022E2FD11BE0112E16D0122E2AD119E0F7
:10058000B8F5881F19D006DCB8F5803F15D0B8F54E
:10059000801F1FD111E0B8F5001F0ED0B8F5041F61
:1005A00018D10AE0CA6815E0CA68121D12E0CA68CC
:1005B00008320FE0CA680C320CE08A682AB1012ABE
:1005C0004FF0080203D0456104E0042202E0056117
:1005D00000E00022FF2B01D8064601E000F10406EE
:1005E0004FEA840501D9A5F12005D6F800C009FA23
:1005F00005F82CEA080C02FA05F54CEA050CC6F8D9
:1006000000C04D68ED0057D5304DAE6946F001068B
:10061000AE61AD6924F0030605F0010500952C4D8F
:1006200006EB050CDCF80850A6074FEA167809FA25
:1006300008F6B543274EB04202D1002610E03BE059
:10064000254EB04201D101260AE0244EB04201D12C
:10065000022605E0224EB04201D1032600E0042626
:1006600006FA08F62E43CCF808604D68DAF8006008
:10067000ED03554601D51E4300E09E432E604D68B4
:10068000DBF80060AD035D4601D51E4300E09E43EC
:100690002E604D68DEF80060ED02754601D51E4300
:1006A00000E09E432E604D68AD020E4D2E6801D5D0
:1006B0001E4300E09E432E60641C102CFFF444AFE8
:1006C000BDE8F88F00040140000011100010024046
:1006D0000000014000080140000C014000100140F2
:1006E000001401400C0401408068084000D0012043
:1006F00070470AB1016170470904FBE701480068CF
:10070000704700002C00002002480168491C01606D
:10071000704700002C000020074810B5016841F028
:1007200010010160032000F07BF8002000F006F8C3
:1007300000F016F8002010BD0020024010B504465D
:1007400000F044F94FF47A71B0FBF1F000F08EFD47
:1007500000222146501E00F043F8002010BD00008A
:100760001D4808B5816941F001018161806900F08F
:1007700001000090032000F053F8002211466FF0B2
:100780000B0000F02DF8002211466FF00A0000F077
:1007900027F8002211466FF0090000F021F800222E
:1007A0001146501F00F01CF800221146101F00F0E7
:1007B00017F800221146901E00F012F80022114690
:1007C000501E00F00DF80548416821F0E06141F04D
:1007D0000071416008BD00000010024000000140AF
:1007E000F0B40E4B1B680C46C3F30223C3F107059C
:1007F000042D00D90425191D072901D2002300E08A
:10080000DB1E012606FA05F1491E214099409E4053
:10081000761E16403143F0BC00F08EBE0CED00E0B9
:10082000064900F0070208684FF6FF03184040EA47
:100830000220034A10430860704700000CED00E0FE
:100840000000FA052DE9F047DFF8708105460E46F5
:10085000D8F8000000F00700B0420CD2D8F8001021
:1008600021F007013143C8F80010D8F8000000F06B
:100870000700B04277D12878514C800705D56068D1
:10088000A96820F0F000084360602878C00759D0BC
:100890006968012001290DD0022929D05FF00203E7
:1008A00093FAA3F2B2FA82F242F02002520904D083
:1008B000226803E04FF40033F2E7626A93FAA3F38D
:1008C000B3FA83F303F01F03984002424BD06068F1
:1008D00020F0030008436060FFF710FF69680746D7
:1008E00041F2883001290DD00229814617D025E038
:1008F0004FF00073D4E700BFFFF700FFC11B49456D
:1009000001D918E081466068C0F381000128F3D165
:1009100018E000BFFFF7F2FEC11B49450BD8606825
:10092000C0F381000228F5D10CE000BFFFF7E6FE1E
:10093000C11B494502D90320BDE8F087606810F06B
:100940000C0FF3D1D8F80010404601F00701B14276
:100950000BD9016821F0070131430160006800F004
:100960000700B04201D00120E6E72878400705D50E
:100970006068E96820F4E060084360602878000758
:1009800006D56068296920F4605040EAC1006060C3
:1009900000F052F86168F02292FAA2F201F0F00140
:1009A000B2FA82F2D140074A515CC8400649086059
:1009B0000020FFF7C3FE0020BEE700000020024039
:1009C000001002409E200008280000200148006816
:1009D000704700002800002008480949006849685D
:1009E0004FF4E06292FAA2F201F4E061B2FA82F20C
:1009F000D140044A515CC8407047000028000020E4
:100A000000100240AE200008084809490068496803
:100A10004FF4605292FAA2F201F46051B2FA82F2FB
:100A2000D140044A515CC8407047000028000020B3
:100A300000100240AE20000810B519A385B00FCBFE
:100A40008DE80F001AA01B4B006804905A681A48E2
:100A500002F00C0104291DD008291BD14FF4701499
:100A600094FAA4F402F47011B4FA84F4E140D203CD
:100A70001DF8011010D55A684FF4003393FAA3F310
:100A800002F40032B3FA83F3DA4004AB9A5CB0FBB1
:100A9000F2F0484305B010BD08484843FAE70000AB
:100AA00002030405060708090A0B0C0D0E0F1010AF
:100AB000010200000010024000127A0000093D000F
:100AC0002DE9F84F04460078F74DC0074FF00106B6
:100AD00025D068687704C0F38100012807D06868D2
:100AE000C0F3810002281BD16868C00318D597FAAB
:100AF000A7F0B0FA80F040F02000400901D028684B
:100B000000E0686A97FAA7F1B1FA81F101F01F01DC
:100B100006FA01F108425ED0606800287CD05AE0F5
:100B20006068B0F5803F0BD010B1B0F5A02F11D0A8
:100B3000286820F480302860286820F4802002E0B3
:100B4000286840F480302860606828B3FFF7D6FD3D
:100B500080460BE0286840F480202860F0E700BF62
:100B6000FFF7CCFDA0EB0800642871D897FAA7F036
:100B7000B0FA80F040F02000400901D0286800E081
:100B8000686A97FAA7F1B1FA81F101F01F0106FA3C
:100B900001F10842E4D01EE0FFF7B0FD804605E019
:100BA000FFF7ACFDA0EB08006428DED897FAA7F0A9
:100BB000B0FA80F040F02000400901D0286800E041
:100BC000686A97FAA7F1B1FA81F101F01F0106FAFC
:100BD00001F10842E4D12078DFF8D08280074FF09D
:100BE00000094FF002075BD568684FF0F80B10F072
:100BF0000C0F07D06868C0F3810002281CD1686818
:100C0000C00319D497FAA7F0B0FA80F040F02000A2
:100C1000400902D0286801E08BE0686A97FAA7F1E2
:100C2000B1FA81F101F01F0106FA01F108422CD05E
:100C3000206901287DD128E0206990B396FAA6F0BA
:100C4000B0FA80F048F82060FFF758FD824607E0D0
:100C500011E100BFFFF752FDA0EB0A00022884D883
:100C600097FAA7F0B0FA80F040F02000400901D0D8
:100C7000286800E0686A97FAA7F1B1FA81F101F0FB
:100C80001F0106FA01F10842E4D028689BFAABF292
:100C90006169B2FA82F220F0F800914008432860BE
:100CA00025E0FFE796FAA6F1B1FA81F148F8219024
:100CB000FFF724FD824605E0FFF720FDA0EB0A00C8
:100CC0000228CCD897FAA7F0B0FA80F040F02000C4
:100CD000400901D0286800E0686A97FAA7F1B1FAE4
:100CE00081F101F01F0106FA01F10842E4D12078F8
:100CF00000076ED5A069B8B396FAA6F0B0FA80F0F6
:100D000008EB8000C0F88064FFF7F8FC824605E03D
:100D1000FFF7F4FCA0EB0A000228A0D897FAA7F08E
:100D2000B0FA80F040F06000B6EB501F02D12868A6
:100D30000CE062E197FAA7F0B0FA80F040F06000B2
:100D4000B7EB501F01D1286A00E0686A97FAA7F153
:100D5000B1FA81F101F01F0106FA01F21042D7D079
:100D60000120FFF7D7FB34E0FFE796FAA6F1B1FACE
:100D700081F108EB8101C1F88094FFF7BFFC824646
:100D800006E000BFFFF7BAFCA0EB0A00022872D809
:100D900097FAA7F0B0FA80F040F06000B6EB501F71
:100DA00001D128680BE097FAA7F0B0FA80F040F084
:100DB0006000B7EB501F01D1286A00E0686A97FA1B
:100DC000A7F1B1FA81F101F01F0106FA01F2104218
:100DD000D8D12078400765D5E86940F08050E861B7
:100DE000E869DFF8CCB000F080500090DBF800102C
:100DF00041F48071CBF80010FFF780FC824605E0DB
:100E0000FFF77CFCA0EB0A00642834D8DBF8000074
:100E1000C005F5D5E06801280AD008B1052813D02F
:100E2000286A20F001002862286A20F0040002E00D
:100E3000286A40F001002862E06841F2883B90B3E4
:100E4000FFF75CFC82460BE0286A40F00400286251
:100E5000EEE700BFFFF752FCA0EB0A0159450AD8A4
:100E600097FAA7F0B0FA80F040F04000B6EB501FC0
:100E700002D128680CE0A3E097FAA7F0B0FA80F05E
:100E800040F04000B7EB501F01D1286A00E0686ACB
:100E900097FAA7F1B1FA81F101F01F0206FA02F107
:100EA0000842D7D031E005E0001002400000424285
:100EB00000700040FFF722FC824605E0FFF71EFCB1
:100EC000A0EB0A0159457BD897FAA7F0B0FA80F059
:100ED00040F04000B6EB501F01D128680BE097FAB4
:100EE000A7F0B0FA80F040F04000B7EB501F01D1FE
:100EF000286A00E0686A97FAA7F1B1FA81F101F077
:100F00001F0206FA02F10842D8D1E06980B369688D
:100F1000C1F38101022970D04FF080714F00022887
:100F2000484609D091FAA1F1B1FA81F148F82100BF
:100F3000FFF7E4FB044669E08A4691FAA1F1B1FAB1
:100F400081F1C14648F82100FFF7D8FB804605E053
:100F5000FFF7D4FBA0EB0800022854D897FAA7F0BB
:100F6000B0FA80F040F02000400902D0286801E08B
:100F700061E0686A97FAA7F1B1FA81F101F01F0107
:100F800006FA01F10842E3D1206AB0F5803F05D1AD
:100F90006868A16820F4003008436860D4E908015B
:100FA0000843696821F47411084368609AFAAAF04A
:100FB000B0FA80F049F82060FFF7A0FB044606E095
:100FC00021E000BFFFF79AFB001B02281BD897FA0D
:100FD000A7F0B0FA80F040F02000400901D0286866
:100FE00000E0686A97FAA7F1B1FA81F101F01F01F8
:100FF00006FA01F10842E5D01DE01EE0FFF77EFB96
:10100000001B022802D90320BDE8F88F97FAA7F049
:10101000B0FA80F040F02000400901D0286800E0DC
:10102000686A97FAA7F1B1FA81F101F01F0106FA97
:1010300001F10842E2D10020E6E70120E4E70000E8
:1010400010B5040003D094F8510010B104E0012061
:1010500010BD204600F038F8022084F851002068C6
:10106000016821F040010160D4E901010843D4E99D
:1010700003121143084361690843218B01F4007195
:101080000843E1690843216A0843A16A08432168CB
:101090000860A069042101EA1040616A08432168E0
:1010A00048602168E06A08612068C16921F4006134
:1010B000C1610449002008706065012084F8510076
:1010C000002010BD3000002000B500680C4985B03C
:1010D000884212D10B48816941F480518161806955
:1010E000694600F480500490A020009002200190F6
:1010F000032003900448FFF719FA05B000BD000073
:101100000030014000100240000801402DE9F84382
:10111000044690F851009846012870D139B332B393
:1011200094F8500001286AD0012684F850601220FB
:1011300084F85100002565652163A286E286E56496
:10114000A564A563A587E587A06A7703B84209D19E
:101150002068016821F4005101602068016841F4B1
:1011600000510160A068B0F5004F03D007E00120F6
:10117000BDE8F8832068016841F48041016020687F
:101180000168490603D4016841F040010160E0684C
:101190000028606804D0D8B1E08E012818D021E082
:1011A00010B1E08E012808D1206B411C2163216819
:1011B0000078C860E08E401EE0860004000C1FD05E
:1011C000434600220221204600F0ADFAA8B9EBE721
:1011D000206B21680088C860206B801C2063E08E33
:1011E000401EE0860004000C0AD043460022022183
:1011F000204600F098FA0028EAD00320B8E726E05D
:10120000A06AB84204D12068016841F480510160AD
:10121000434600220221204600F085FA30B94346B9
:1012200001228021204600F07EFA20B1606D40F05E
:1012300010006065E1E7A06818B92068C16880689F
:10124000009084F8516084F85050002090E702200C
:101250008EE74FF0E0210428086903D020F0040055
:101260000861704740F00400FAE7704710B5401E6F
:10127000B0F1807F01D3012010BD4FF0E024606108
:101280000F21601700F058F90020A06107202061AD
:10129000002010BD10B5FFF7E8FF10BD70B50400C9
:1012A00004D094F83900002510B106E0012070BD8B
:1012B00084F83850204600F021F8022084F83900E4
:1012C0002068C16821F40051C160204600F0DAFABC
:1012D0002068016921F4904101612068416921F091
:1012E0002A0141612068C16841F40051C160E56391
:1012F000012084F83900002070BD000010B500689E
:10130000114986B088421CD11048C16941F40031AE
:10131000C161C0690E4C00F40030049004200090BC
:10132000022001900320039069462046FFF7FEF853
:1013300000210820CDE90001029169462046FFF70F
:10134000F5F806B010BD0000004400400010024057
:10135000000801402DE9F047044690F8390099460D
:101360000D46012801D0222858D12DB322B394F87C
:101370003800012852D0012684F838600027E7633E
:1013800094F8390022281AD05FF0120084F839004E
:10139000A284E2844FF48058E08C4B46401EE084E7
:1013A000A0684FF0000240454FF08001204613D165
:1013B00000F020FB08BB04E00120BDE8F0873220EC
:1013C000E4E728882168C0F308004860206908B174
:1013D0006D1C08E0AD1C06E000F00CFB68B921684C
:1013E00015F8010B4860E08C0028D5D14B4600224F
:1013F0004021204600F0FEFA08B10320DDE794F812
:101400003900322806D084F8396000BF84F838707B
:101410000020D2E7222084F83900F7E70220CCE749
:10142000FEE700002DE9F0432D4885B0816941F0C9
:1014300020018161816901F020010491816941F0FD
:1014400004018161816901F004010491816941F025
:1014500010018161816901F010010491816941F0FD
:101460000801816180691F4F00F00800049000228C
:1014700080213846FFF73DF9DFF86C807E150022A9
:1014800031464046FFF735F9DFF8609000224021F1
:101490004846FFF72EF980200124CDE900040225FB
:1014A000694603953846FFF741F820020090002076
:1014B0000190029069464046FFF738F8CDE9006494
:1014C000694640460395FFF731F84020CDE9000416
:1014D000694603954846FFF729F805B0BDE8F08353
:1014E000001002400010014000080140000C0140C3
:1014F0000F4810B50D4901604FF4827141604FF4FF
:10150000004181600021C1604FF400720161C0E9B7
:1015100005121822C0E90721416281620A21C162D5
:10152000FFF78EFD002800D0FEE710BD003001401F
:1015300058040020FEE770470907090E002806DA64
:1015400000F00F0000F1E02080F8141D704700F15A
:10155000E02080F800147047F0B50F4606460025DD
:101560000CE0002406E03B4622462946304600F0C7
:1015700009F8641CB068A042F5DC6D1C7068A842D4
:10158000EFDCF0BD70B500291EDB45688D421BDD28
:10159000002A19DB8468944216DDCC1701EB5474E1
:1015A00024F007040E1B02FB051100684FEAE172EC
:1015B00001EB527100EBE10080240178F4400BB1A3
:1015C000214300E0A143017070BD00002DE9FF4FF1
:1015D00093460D9DA888410700D0012101EBD00062
:1015E000203BE9885843484329680E18002727E024
:1015F00000244FF0800A0BEB0708DFF8509017E04B
:10160000E01704EB507020F007003178221A2AFA14
:1016100002F0014206D00198424601190E9B009843
:1016200000F016F804EA0900072800D1761C641CB3
:10163000A888A042E4DC2879400700D0761C7F1CF3
:10164000E888B842D4DCBDE8FF8F000007000080C6
:1016500030B4C468ACB1012C1ED0022C2AD0032CAB
:1016600035D1002933DB85688D4230DD002A2EDB41
:10167000446894422BDD14466A1A214630BCFFF7B9
:1016800081BF002923DB44688C4220DD002A1EDB59
:10169000846894421BDDF1E7002918DB84688C42E2
:1016A00015DD002A13DB4568954210DD0C46A91AAA
:1016B0002246E3E700290ADB45688D4207DD002A60
:1016C00005DB8468944202DD691AA21AD6E730BCB1
:1016D00070472DE9FC439046DDE9096781461C46C9
:1016E0000D4609E0424629464846CDE90067FFF726
:1016F0006DFFB088641C05442378002BF2D1BDE84F
:10170000FC8310B50024C4600160510707D0D117D5
:1017100002EB517121F00701511A521A0832C0E947
:10172000012310BD70472DE9F0471D4690460E4637
:101730000446FEF7E3FF07465FEA08004FF00008A3
:101740004FF4005A4FF0010926D034E0681C23D032
:1017500025B1FEF7D3FFC01BA8421DD92068416800
:1017600021F0E00141602068016821F04001016042
:10177000A06A504509D12068016821F40051016038
:101780002068016841F40051016084F8519084F8A8
:1017900050800320BDE8F0872068806836EA0000AA
:1017A000D4D10DE0681C06D0002DD7D0FEF7A6FFDF
:1017B000C01BA842D2D82068806836EA0000F1D069
:1017C0000020E7E7704710B5FEF79EFFBDE8104028
:1017D000FFF760BD30B58FB001210804CDE90010DE
:1017E0000024029402250491CDE907504FF4E01043
:1017F00009906846FFF764F900B1FEE70F20CDE9D4
:101800000A054FF48060CDE90C4002210AA80E942D
:10181000FFF718F800B1FEE7FFF7D8F84FF47A7138
:10182000B0FBF1F0FFF722FD0420FFF712FD0022CC
:101830001146501EFEF7D4FF0FB030BD0D480168B1
:1018400041F00101016041680B4A114041600168AB
:101850000A4A11400160016821F480210160416859
:1018600021F4FE0141604FF41F0181600449C0036F
:1018700008607047001002400000FFF8FFFFF6FE0E
:1018800008ED00E02DE9F041044600680169E268D6
:1018900021F44051114301612169A0680843616945
:1018A00008432168CA6841F20C639A430243CA6044
:1018B00020684169A26921F44071114341614C499A
:1018C00020686425322688423CD1FFF79DF800EB62
:1018D000C00101EB001061688900B0FBF1F7FFF770
:1018E00093F800EBC00101EB00106168B04689007D
:1018F000B0FBF1F0B0FBF5F06FF01801484307EBD7
:10190000800106EB0110B0FBF5F000F0F006FFF7E8
:101910007BF800EBC00101EB001061688900B0FBAF
:10192000F1F0B0FBF5F006EB0016FFF76DF800EBF9
:10193000C00101EB001061688900B0FBF1F7FFF70F
:1019400063F83BE0FFF748F800EBC00101EB001043
:1019500061688900B0FBF1F7FFF73EF800EBC001CA
:1019600001EB00106168B0468900B0FBF1F0B0FBFC
:10197000F5F06FF01801484307EB800106EB01100A
:10198000B0FBF5F000F0F006FFF726F800EBC00121
:1019900001EB001061688900B0FBF1F0B0FBF5F0DD
:1019A00006EB0016FFF718F800EBC00101EB001082
:1019B00061688900B0FBF1F7FFF70EF800EBC0019A
:1019C00001EB001061688900B0FBF1F0B0FBF5F0AD
:1019D0006FF01801484307EB800108EB0110B0FBE2
:1019E000F5F0216800F00F0030448860BDE8F08118
:1019F000003801402DE9F0471D4690460E4604464A
:101A0000FEF77CFE07465FEA08004FF000094FF042
:101A1000010808D030E0681C05D095B1FEF76EFED5
:101A2000C01BA8420DD82068006836EA0000F2D139
:101A300027E0681C20D025B1FEF760FEC01BA8423D
:101A40001AD92068C16821F08001C1602068C1688E
:101A500021F02001C1602068C16821F48071C1605B
:101A60002068416921F00101416184F8398084F8DE
:101A700038900320BDE8F0872068006836EA00004F
:101A8000D7D00020F6E7FEE7014A024900F013B87C
:101A9000D91A00083400002002E008C8121F08C14B
:101AA000002AFAD170477047002001E001C1121FDF
:101AB000002AFBD170472DE9F04116460F46044637
:101AC000002503E03946B047641C6D1C20780028CF
:101AD000F8D12846BDE8F08113B54FF6FF73012217
:101AE00069460248FFF736FC00981CBDB004002090
:101AF000F0B58DB0FEF710FEFFF76CFEFFF792FC1D
:101B0000FFF7F6FC30482F49002401604FF4E13123
:101B1000C0E901140C21C460C0E904418461C461BE
:101B2000FFF7BCFB00B1FEE7284902A8FEF752FB15
:101B300030B127A0FFF7A8FF0DB04FF0FF30F0BD88
:101B4000FF2102A8FEF702FB18238022264909A8DC
:101B5000FFF7D7FD012109A8FFF7FEFC234DCDE9D2
:101B60000054002222A3114609A8FFF7B2FD18264F
:101B70008027CDE9007600231A461B4902A8FEF70C
:101B8000BAFB02A8FEF710FB012109A8FFF7E4FC4D
:101B9000CDE900540C221AA3114609A8FFF799FDBC
:101BA000CDE900760C2300220F4902A8FEF7A3FB23
:101BB000FEF7A4FD4FF4FA74214602A8FEF7F1FAED
:101BC000FAE7000000440040B00400200C1C0008AC
:101BD000652D506170657220696E69742066616957
:101BE0006C65640A000000005800002020000020FE
:101BF000652D50617065722044656D6F00000000B6
:101C000048656C6C6F204B69742100002255AA5501
:101C1000AA55AA1100000000000000001E1E1E1E92
:101C20001E1E1E1E0100000000000000000000003B
:101C30000000000000000010101010100000100044
:101C40000000006C48480000000000000000001484
:101C500014287C287C285050000000103840403860
:101C6000487010100000002050200C70081408006C
:101C7000000000000018202054483400000000102C
:101C800010101000000000000000000808101010E4
:101C90001010100808000020201010101010102044
:101CA000200000107C102828000000000000000028
:101CB000101010FE101010000000000000000000C6
:101CC00000181030200000000000007C0000000020
:101CD00000000000000000000030300000000004A0
:101CE00004080810102020400000003844444444F8
:101CF00044443800000000301010101010107C0018
:101D0000000000384404081020447C000000003823
:101D100044041804044438000000000C1414244443
:101D20007E040E000000003C2020380404443800EB
:101D30000000001C20407844444438000000007C2F
:101D400044040808081010000000003844443844D7
:101D500044443800000000384444443C0408700007
:101D600000000000003030000030300000000000B3
:101D70000018180000183020000000000C106080CF
:101D800060100C000000000000007C007C000000DF
:101D900000000000C02018041820C000000000004F
:101DA000182404081000300000003844444C5454F7
:101DB0004C40443800000030102828287C44EE00B5
:101DC000000000F8444478444444F8000000003C1B
:101DD0004440404040443800000000F0484444443F
:101DE0004448F000000000FC445070504044FC00A7
:101DF0000000007E22283828202070000000003CCF
:101E00004440404E44443800000000EE44447C44CA
:101E10004444EE000000007C1010101010107C00F4
:101E20000000003C0808084848483000000000EE68
:101E3000444850704844E6000000007020202020F4
:101E400024247C00000000EE6C6C54544444EE00EA
:101E5000000000EE64645454544CEC000000003860
:101E60004444444444443800000000782424243886
:101E70002020700000000038444444444444381C8E
:101E8000000000F8444444784844E2000000003474
:101E90004C40380404645800000000FE92101010FA
:101EA00010103800000000EE44444444444438001C
:101EB000000000EE4444282828101000000000EE26
:101EC0004444545454542800000000C644281010C0
:101ED0002844C600000000EE4428281010103800E6
:101EE0000000007C4408101020447C0000000038F2
:101EF00020202020202020203800004020202010FA
:101F00001008080800000038080808080808080831
:101F100038000010102844000000000000000000FD
:101F2000000000000000000000FE0010080000009B
:101F300000000000000000000038443C44443E0023
:101F4000000000C0405864444444F8000000000011
:101F5000003C4440404438000000000C04344C4431
:101F600044443E00000000000038447C40403C00F7
:101F70000000001C207C202020207C0000000000AD
:101F800000364C4444443C04380000C0405864448B
:101F90004444EE00000000100070101010107C008F
:101FA000000000100078080808080808700000C049
:101FB000405C48705048DC000000003010101010E9
:101FC00010107C000000000000E854545454FE003F
:101FD0000000000000D864444444EE00000000000B
:101FE00000384444444438000000000000D86444F1
:101FF00044447840E000000000364C4444443C0433
:102000000E000000006C302020207C00000000004A
:10201000003C44380444780000000000207C20206C
:1020200020221C000000000000CC4444444C360038
:102030000000000000EE44442828100000000000CA
:1020400000EE4454545428000000000000CC4830F6
:102050003048CC000000000000EE44242818101086
:1020600078000000007C481020447C00000000083C
:102070001010101020101010080000101010101078
:102080001010101000000020101010100810101078
:1020900020000000000000245800000000000000A4
:1020A0000000000000000102030406070809000008
:1020B0000000010203040000D820000800000020F6
:1020C00038000000981A000810210008380000208D
:1020D000B8140000A81A0008000C014040000000DD
:1020E00000080140000200000010014080000000D4
:1020F00000080140000100002A1C000807000C0035
:1021000000A24A04000000000000000000000000DF
:04000005080000ED02
:00000001FF
