:020000040800F2
:10000000F814002001010008371500082114000829
:100010003515000849010008E31B00080000000036
:100020000000000000000000000000001F19000890
:100030004B010008000000007F180008211900088B
:100040001B0100081B0100081B0100081B01000820
:100050001B0100081B0100081B0100081B01000810
:100060001B0100081B0100081B0100081B01000800
:100070001B0100081B0100081B0100081B010008F0
:100080001B0100081B0100081B0100081B010008E0
:100090001B0100081B0100081B0100081B010008D0
:1000A0001B0100081B0100081B0100081B010008C0
:1000B0001B0100081B0100081B0100081B010008B0
:1000C0001B0100081B0100081B0100081B010008A0
:1000D0001B0100081B0100081B0100081B01000890
:1000E0001B0100081B0100081B010008DFF80CD0F1
:1000F00000F018F8004800474D1C0008F8140020D4
:100100000648804706480047FEE7FEE7FEE7FEE7B1
:10011000FEE7FEE7FEE7FEE7FEE7FEE799190008C7
:10012000ED000008064C074D06E0E06840F00103D2
:1001300094E8070098471034AC42F6D3FFF7DAFF93
:10014000184E0008384E0008FEE77047F8B5044620
:1001500040690F46401E0090236900221146204648
:100160005B1E00F02CF9002517E02A4600212046EE
:1001700000F051F92421204600F0A7F8002604E001
:100180003946204600F0ACF8761C2069C11700EB18
:100190005170B6EBE00FF3DB6D1C6069A842E4DC44
:1001A000F8BD084600F061B910B50446222100F000
:1001B0008CF8C421204600F093F82021204600F05E
:1001C00084F8FF21204600F080F82046BDE810406A
:1001D00000F03FB970B50446012020600220606045
:1001E0000020A0600320E06080202061FA200D46FE
:1001F000606100F05DF910B14FF0FF3070BD204636
:10020000A56100F050F80121204600F05EF8F921C8
:10021000204600F065F80021204600F061F800213A
:10022000204600F05DF80C21204600F04EF8D72162
:10023000204600F055F8D621204600F051F89D21C7
:10024000204600F04DF82C21204600F03EF8A82171
:10025000204600F045F83A21204600F036F81A21F1
:10026000204600F03DF83B21204600F02EF8082102
:10027000204600F035F81121204600F026F8032131
:10028000204600F02DF825463221204600F01DF8CA
:100290000024A869015D284600F022F8641C1E2C89
:1002A000F7DB002070BD10B504460068002100F0A7
:1002B000EFF8C82000F0D9F80121206800F0E8F834
:1002C000BDE81040C82000F0D0B810B50C4640681A
:1002D000002100F0DDF82046BDE8104000F000B934
:1002E00010B50C464068012100F0D2F82046BDE868
:1002F000104000F0F5B82DE9FF4F83B09846DDE9D6
:100300001001049B002B57D0002A55DB002853DB3B
:10031000B8F1000F50DB00294EDB00F0F80903981C
:1003200002F0F80B0BEB09040069844201DB441E68
:1003300000E0641E08EB010003994D69A84201DB4F
:100340006D1E00E0451E234642465946009503981F
:1003500000F035F846462DE032465946039800F045
:100360005AF824210398FFF7B0FF4FEAEB710BEB2B
:100370005170C7100290A6EB080001904FEAE97097
:1003800009EB5070C0100090E01704EB507A0DE0BC
:100390000298A7EBE00104980A18DDE9001000FBC1
:1003A000012001780398FFF79BFF7F1CB7EBEA0F52
:1003B000EEDD761CAE42CFDD07B0BDE8F08F2DE953
:1003C000F0410F461E46144680464421069DFFF725
:1003D0007CFFC7F3C7014046FFF782FFC6F3C701A2
:1003E0004046FFF77DFF45214046FFF76EFFE1B233
:1003F0004046FFF775FFC4F307214046FFF770FF43
:10040000E9B24046FFF76CFFC5F307214046BDE85F
:10041000F041FFF765BF70B50D46144606464E2104
:10042000FFF753FFC5F3C7013046FFF759FF4F21D0
:100430003046FFF74AFFE1B23046FFF751FFC4F301
:1004400007213046FFF74CFF3046BDE87040AFF360
:10045000008010B5044602E0642000F006F8E06871
:1004600000F006F80128F7D010BD00F053B80000E6
:10047000064A10B502EBC00152F83000898889B2F3
:1004800000F032F9012800D0002010BD400000200B
:10049000064B012903EBC00253F83000526891B2B9
:1004A00002D0002200F025B90122FBE74000002025
:1004B0000A480949D0E90023C1E90023D0E9022311
:1004C000C1E90223D0E90423C1E90423D0E90620CD
:1004D000C1E90620002070474000002000000020F5
:1004E00031B50A4C0022A08881B2206800F001F9E1
:1004F0004FF47A7301226946054800F007FEA08890
:10050000012281B2206800F0F4F838BD40000020DC
:100510006004002031B500F0F1F8044600F0EEF878
:100520000099001B8842F9D338BD00002DE9F84F2F
:10053000DFF890A100220AF1040B144601274FF0C6
:100540000F090BF1040E00BF0B6807FA04F52B40EE
:10055000AB4274D1DFF870C14E68A6EB0C0866455B
:100560002BD00DDC032E34D005DC36B3012E19D090
:10057000022E2FD11BE0112E16D0122E2AD119E0F7
:10058000B8F5881F19D006DCB8F5803F15D0B8F54E
:10059000801F1FD111E0B8F5001F0ED0B8F5041F61
:1005A00018D10AE0CA6815E0CA68121D12E0CA68CC
:1005B00008320FE0CA680C320CE08A682AB1012ABE
:1005C0004FF0080203D0456104E0042202E0056117
:1005D00000E00022FF2B01D8064601E000F10406EE
:1005E0004FEA840501D9A5F12005D6F800C009FA23
:1005F00005F82CEA080C02FA05F54CEA050CC6F8D9
:1006000000C04D68ED0057D5304DAE6946F001068B
:10061000AE61AD6924F0030605F0010500952C4D8F
:1006200006EB050CDCF80850A6074FEA167809FA25
:1006300008F6B543274EB04202D1002610E03BE059
:10064000254EB04201D101260AE0244EB04201D12C
:10065000022605E0224EB04201D1032600E0042626
:1006600006FA08F62E43CCF808604D68DAF8006008
:10067000ED03554601D51E4300E09E432E604D68B4
:10068000DBF80060AD035D4601D51E4300E09E43EC
:100690002E604D68DEF80060ED02754601D51E4300
:1006A00000E09E432E604D68AD020E4D2E6801D5D0
:1006B0001E4300E09E432E60641C102CFFF444AFE8
:1006C000BDE8F88F00040140000011100010024046
:1006D0000000014000080140000C014000100140F2
:1006E000001401400C0401408068084000D0012043
:1006F00070470AB1016170470904FBE701480068CF
:10070000704700003400002002480168491C016065
:100710007047000034000020074810B5016841F020
:1007200010010160032000F07BF8002000F006F8C3
:1007300000F016F8002010BD0020024010B504465D
:1007400000F044F94FF47A71B0FBF1F000F08EFD47
:1007500000222146501E00F043F8002010BD00008A
:100760001D4808B5816941F001018161806900F08F
:1007700001000090032000F053F8002211466FF0B2
:100780000B0000F02DF8002211466FF00A0000F077
:1007900027F8002211466FF0090000F021F800222E
:1007A0001146501F00F01CF800221146101F00F0E7
:1007B00017F800221146901E00F012F80022114690
:1007C000501E00F00DF80548416821F0E06141F04D
:1007D0000071416008BD00000010024000000140AF
:1007E000F0B40E4B1B680C46C3F30223C3F107059C
:1007F000042D00D90425191D072901D2002300E08A
:10080000DB1E012606FA05F1491E214099409E4053
:10081000761E16403143F0BC00F08EBE0CED00E0B9
:10082000064900F0070208684FF6FF03184040EA47
:100830000220034A10430860704700000CED00E0FE
:100840000000FA052DE9F047DFF8708105460E46F5
:10085000D8F8000000F00700B0420CD2D8F8001021
:1008600021F007013143C8F80010D8F8000000F06B
:100870000700B04277D12878514C800705D56068D1
:10088000A96820F0F000084360602878C00759D0BC
:100890006968012001290DD0022929D05FF00203E7
:1008A00093FAA3F2B2FA82F242F02002520904D083
:1008B000226803E04FF40033F2E7626A93FAA3F38D
:1008C000B3FA83F303F01F03984002424BD06068F1
:1008D00020F0030008436060FFF710FF69680746D7
:1008E00041F2883001290DD00229814617D025E038
:1008F0004FF00073D4E700BFFFF700FFC11B49456D
:1009000001D918E081466068C0F381000128F3D165
:1009100018E000BFFFF7F2FEC11B49450BD8606825
:10092000C0F381000228F5D10CE000BFFFF7E6FE1E
:10093000C11B494502D90320BDE8F087606810F06B
:100940000C0FF3D1D8F80010404601F00701B14276
:100950000BD9016821F0070131430160006800F004
:100960000700B04201D00120E6E72878400705D50E
:100970006068E96820F4E060084360602878000758
:1009800006D56068296920F4605040EAC1006060C3
:1009900000F052F86168F02292FAA2F201F0F00140
:1009A000B2FA82F2D140074A515CC8400649086059
:1009B0000020FFF7C3FE0020BEE700000020024039
:1009C00000100240004E000830000020014800687E
:1009D0007047000030000020084809490068496855
:1009E0004FF4E06292FAA2F201F4E061B2FA82F20C
:1009F000D140044A515CC8407047000030000020DC
:100A000000100240104E0008084809490068496873
:100A10004FF4605292FAA2F201F46051B2FA82F2FB
:100A2000D140044A515CC8407047000030000020AB
:100A300000100240104E000810B519A385B00FCB6E
:100A40008DE80F001AA01B4B006804905A681A48E2
:100A500002F00C0104291DD008291BD14FF4701499
:100A600094FAA4F402F47011B4FA84F4E140D203CD
:100A70001DF8011010D55A684FF4003393FAA3F310
:100A800002F40032B3FA83F3DA4004AB9A5CB0FBB1
:100A9000F2F0484305B010BD08484843FAE70000AB
:100AA00002030405060708090A0B0C0D0E0F1010AF
:100AB000010200000010024000127A0000093D000F
:100AC0002DE9F84F04460078F74DC0074FF00106B6
:100AD00025D068687704C0F38100012807D06868D2
:100AE000C0F3810002281BD16868C00318D597FAAB
:100AF000A7F0B0FA80F040F02000400901D028684B
:100B000000E0686A97FAA7F1B1FA81F101F01F01DC
:100B100006FA01F108425ED0606800287CD05AE0F5
:100B20006068B0F5803F0BD010B1B0F5A02F11D0A8
:100B3000286820F480302860286820F4802002E0B3
:100B4000286840F480302860606828B3FFF7D6FD3D
:100B500080460BE0286840F480202860F0E700BF62
:100B6000FFF7CCFDA0EB0800642871D897FAA7F036
:100B7000B0FA80F040F02000400901D0286800E081
:100B8000686A97FAA7F1B1FA81F101F01F0106FA3C
:100B900001F10842E4D01EE0FFF7B0FD804605E019
:100BA000FFF7ACFDA0EB08006428DED897FAA7F0A9
:100BB000B0FA80F040F02000400901D0286800E041
:100BC000686A97FAA7F1B1FA81F101F01F0106FAFC
:100BD00001F10842E4D12078DFF8D08280074FF09D
:100BE00000094FF002075BD568684FF0F80B10F072
:100BF0000C0F07D06868C0F3810002281CD1686818
:100C0000C00319D497FAA7F0B0FA80F040F02000A2
:100C1000400902D0286801E08BE0686A97FAA7F1E2
:100C2000B1FA81F101F01F0106FA01F108422CD05E
:100C3000206901287DD128E0206990B396FAA6F0BA
:100C4000B0FA80F048F82060FFF758FD824607E0D0
:100C500011E100BFFFF752FDA0EB0A00022884D883
:100C600097FAA7F0B0FA80F040F02000400901D0D8
:100C7000286800E0686A97FAA7F1B1FA81F101F0FB
:100C80001F0106FA01F10842E4D028689BFAABF292
:100C90006169B2FA82F220F0F800914008432860BE
:100CA00025E0FFE796FAA6F1B1FA81F148F8219024
:100CB000FFF724FD824605E0FFF720FDA0EB0A00C8
:100CC0000228CCD897FAA7F0B0FA80F040F02000C4
:100CD000400901D0286800E0686A97FAA7F1B1FAE4
:100CE00081F101F01F0106FA01F10842E4D12078F8
:100CF00000076ED5A069B8B396FAA6F0B0FA80F0F6
:100D000008EB8000C0F88064FFF7F8FC824605E03D
:100D1000FFF7F4FCA0EB0A000228A0D897FAA7F08E
:100D2000B0FA80F040F06000B6EB501F02D12868A6
:100D30000CE062E197FAA7F0B0FA80F040F06000B2
:100D4000B7EB501F01D1286A00E0686A97FAA7F153
:100D5000B1FA81F101F01F0106FA01F21042D7D079
:100D60000120FFF7D7FB34E0FFE796FAA6F1B1FACE
:100D700081F108EB8101C1F88094FFF7BFFC824646
:100D800006E000BFFFF7BAFCA0EB0A00022872D809
:100D900097FAA7F0B0FA80F040F06000B6EB501F71
:100DA00001D128680BE097FAA7F0B0FA80F040F084
:100DB0006000B7EB501F01D1286A00E0686A97FA1B
:100DC000A7F1B1FA81F101F01F0106FA01F2104218
:100DD000D8D12078400765D5E86940F08050E861B7
:100DE000E869DFF8CCB000F080500090DBF800102C
:100DF00041F48071CBF80010FFF780FC824605E0DB
:100E0000FFF77CFCA0EB0A00642834D8DBF8000074
:100E1000C005F5D5E06801280AD008B1052813D02F
:100E2000286A20F001002862286A20F0040002E00D
:100E3000286A40F001002862E06841F2883B90B3E4
:100E4000FFF75CFC82460BE0286A40F00400286251
:100E5000EEE700BFFFF752FCA0EB0A0159450AD8A4
:100E600097FAA7F0B0FA80F040F04000B6EB501FC0
:100E700002D128680CE0A3E097FAA7F0B0FA80F05E
:100E800040F04000B7EB501F01D1286A00E0686ACB
:100E900097FAA7F1B1FA81F101F01F0206FA02F107
:100EA0000842D7D031E005E0001002400000424285
:100EB00000700040FFF722FC824605E0FFF71EFCB1
:100EC000A0EB0A0159457BD897FAA7F0B0FA80F059
:100ED00040F04000B6EB501F01D128680BE097FAB4
:100EE000A7F0B0FA80F040F04000B7EB501F01D1FE
:100EF000286A00E0686A97FAA7F1B1FA81F101F077
:100F00001F0206FA02F10842D8D1E06980B369688D
:100F1000C1F38101022970D04FF080714F00022887
:100F2000484609D091FAA1F1B1FA81F148F82100BF
:100F3000FFF7E4FB044669E08A4691FAA1F1B1FAB1
:100F400081F1C14648F82100FFF7D8FB804605E053
:100F5000FFF7D4FBA0EB0800022854D897FAA7F0BB
:100F6000B0FA80F040F02000400902D0286801E08B
:100F700061E0686A97FAA7F1B1FA81F101F01F0107
:100F800006FA01F10842E3D1206AB0F5803F05D1AD
:100F90006868A16820F4003008436860D4E908015B
:100FA0000843696821F47411084368609AFAAAF04A
:100FB000B0FA80F049F82060FFF7A0FB044606E095
:100FC00021E000BFFFF79AFB001B02281BD897FA0D
:100FD000A7F0B0FA80F040F02000400901D0286866
:100FE00000E0686A97FAA7F1B1FA81F101F01F01F8
:100FF00006FA01F10842E5D01DE01EE0FFF77EFB96
:10100000001B022802D90320BDE8F88F97FAA7F049
:10101000B0FA80F040F02000400901D0286800E0DC
:10102000686A97FAA7F1B1FA81F101F01F0106FA97
:1010300001F10842E2D10020E6E70120E4E70000E8
:1010400010B5040003D094F8510010B104E0012061
:1010500010BD204600F038F8022084F851002068C6
:10106000016821F040010160D4E901010843D4E99D
:1010700003121143084361690843218B01F4007195
:101080000843E1690843216A0843A16A08432168CB
:101090000860A069042101EA1040616A08432168E0
:1010A00048602168E06A08612068C16921F4006134
:1010B000C1610449002008706065012084F8510076
:1010C000002010BD3800002000B500680C4985B034
:1010D000884212D10B48816941F480518161806955
:1010E000694600F480500490A020009002200190F6
:1010F000032003900448FFF719FA05B000BD000073
:101100000030014000100240000801402DE9F84382
:10111000044690F851009846012870D139B332B393
:1011200094F8500001286AD0012684F850601220FB
:1011300084F85100002565652163A286E286E56496
:10114000A564A563A587E587A06A7703B84209D19E
:101150002068016821F4005101602068016841F4B1
:1011600000510160A068B0F5004F03D007E00120F6
:10117000BDE8F8832068016841F48041016020687F
:101180000168490603D4016841F040010160E0684C
:101190000028606804D0D8B1E08E012818D021E082
:1011A00010B1E08E012808D1206B411C2163216819
:1011B0000078C860E08E401EE0860004000C1FD05E
:1011C000434600220221204600F05AFBA8B9EBE773
:1011D000206B21680088C860206B801C2063E08E33
:1011E000401EE0860004000C0AD043460022022183
:1011F000204600F045FB0028EAD00320B8E726E0AF
:10120000A06AB84204D12068016841F480510160AD
:10121000434600220221204600F032FB30B943460B
:1012200001228021204600F02BFB20B1606D40F0B0
:1012300010006065E1E7A06818B92068C16880689F
:10124000009084F8516084F85050002090E702200C
:101250008EE74FF0E0210428086903D020F0040055
:101260000861704740F00400FAE7704710B5401E6F
:10127000B0F1807F01D3012010BD4FF0E024606108
:101280000F21601700F058F90020A06107202061AD
:10129000002010BD10B5FFF7E8FF10BD70B50400C9
:1012A00004D094F83900002510B106E0012070BD8B
:1012B00084F83850204600F021F8022084F83900E4
:1012C0002068C16821F40051C160204600F088FB0D
:1012D0002068016921F4904101612068416921F091
:1012E0002A0141612068C16841F40051C160E56391
:1012F000012084F83900002070BD000010B500689E
:10130000114986B088421CD11048C16941F40031AE
:10131000C161C0690E4C00F40030049004200090BC
:10132000022001900320039069462046FFF7FEF853
:1013300000210820CDE90001029169462046FFF70F
:10134000F5F806B010BD0000004400400010024057
:10135000000801402DE9F047044690F8390099460D
:101360000D46012801D0222858D12DB322B394F87C
:101370003800012852D0012684F838600027E7633E
:1013800094F8390022281AD05FF0120084F839004E
:10139000A284E2844FF48058E08C4B46401EE084E7
:1013A000A0684FF0000240454FF08001204613D165
:1013B00000F0CEFB08BB04E00120BDE8F08732203E
:1013C000E4E728882168C0F308004860206908B174
:1013D0006D1C08E0AD1C06E000F0BAFB68B921689E
:1013E00015F8010B4860E08C0028D5D14B4600224F
:1013F0004021204600F0ACFB08B10320DDE794F863
:101400003900322806D084F8396000BF84F838707B
:101410000020D2E7222084F83900F7E70220CCE749
:10142000FEE700002DE9F0432D4885B0816941F0C9
:1014300020018161816901F020010491816941F0FD
:1014400004018161816901F004010491816941F025
:1014500010018161816901F010010491816941F0FD
:101460000801816180691F4F00F00800049000228C
:1014700080213846FFF73DF9DFF86C807E150022A9
:1014800031464046FFF735F9DFF8609000224021F1
:101490004846FFF72EF980200124CDE900040225FB
:1014A000694603953846FFF741F820020090002076
:1014B0000190029069464046FFF738F8CDE9006494
:1014C000694640460395FFF731F84020CDE9000416
:1014D000694603954846FFF729F805B0BDE8F08353
:1014E000001002400010014000080140000C0140C3
:1014F0000F4810B50D4901604FF4827141604FF4FF
:10150000004181600021C1604FF400720161C0E9B7
:1015100005121822C0E90721416281620A21C162D5
:10152000FFF78EFD002800D0FEE710BD003001401F
:1015300060040020FEE770470907090E002806DA5C
:1015400000F00F0000F1E02080F8141D704700F15A
:10155000E02080F800147047F0B50F4606460025DD
:101560000CE0002406E03B4622462946304600F0C7
:1015700009F8641CB068A042F5DC6D1C7068A842D4
:10158000EFDCF0BD70B500291EDB45688D421BDD28
:10159000002A19DB8468944216DDCC1701EB5474E1
:1015A00024F007040E1B02FB051100684FEAE172EC
:1015B00001EB527100EBE10080240178F4400BB1A3
:1015C000214300E0A143017070BD00002DE9FF4FF1
:1015D00093460D9DA888410700D0012101EBD00062
:1015E000203BE9885843484329680E18002727E024
:1015F00000244FF0800A0BEB0708DFF8509017E04B
:10160000E01704EB507020F007003178221A2AFA14
:1016100002F0014206D00198424601190E9B009843
:1016200000F060F804EA0900072800D1761C641C69
:10163000A888A042E4DC2879400700D0761C7F1CF3
:10164000E888B842D4DCBDE8FF8F000007000080C6
:101650002DE9F041164680460C46CF18069D06E05F
:101660002B4632462146404600F03CF8641CA74217
:10167000F6DCBDE8F0812DE9FF4F81B00C460E9FEE
:101680001E461546181B00D5A01B81464FF0FF31A2
:10169000B44201DA012000E008460090781B0028DF
:1016A00000DDE81B8246BD4200DA01218B4609EBD2
:1016B0000A0810E02A4621460F9B019800F012F814
:1016C000BAEB480F02DC0098D0440444B9EB480F51
:1016D00001DBC8445D44B44201D0BD42EAD105B04B
:1016E000BDE8F08F30B4C468ACB1012C1ED0022C20
:1016F0002AD0032C35D1002933DB85688D4230DDBB
:10170000002A2EDB446894422BDD14466A1A2146D7
:1017100030BCFFF737BF002923DB44688C4220DD53
:10172000002A1EDB846894421BDDF1E7002918DBE8
:1017300084688C4215DD002A13DB4568954210DD74
:101740000C46A91A2246E3E700290ADB45688D42C8
:1017500007DD002A05DB8468944202DD691AA21ABB
:10176000D6E730BC70472DE9F8478246DDE9090528
:101770008B4201DD0F4600E01F4601DD1C4600E004
:101780000C46904201DD164600E0064600DD0246AA
:101790009146A4EB070808F101033246394650464A
:1017A0000095FFF755FF08F101034A4639465046B8
:1017B0000095FFF74DFFA9EB060808F1010332463B
:1017C00039465046009500F022F808F101033246F0
:1017D00021465046009500F01AF8BDE8F8872DE93B
:1017E000FC439046DDE9096781461C460D4609E049
:1017F000424629464846CDE90067FFF7E7FEB08834
:10180000641C05442378002BF2D1BDE8FC832DE94C
:10181000F0410E4680461446D718069D06E02B463A
:10182000224631464046FFF75DFF641CA742F6DCC6
:10183000BDE8F081806870474068704710B50024AB
:10184000C4600160510707D0D11702EB517121F03C
:101850000701511A521A0832C0E9012310BD8160F4
:101860007047C16070474A0707D0CA1701EB527230
:1018700022F007028A1A891A0831416070477047BE
:101880002DE9F0471D4690460E460446FEF736FF0A
:1018900007465FEA08004FF000084FF4005A4FF087
:1018A000010926D034E0681C23D025B1FEF726FFBD
:1018B000C01BA8421DD92068416821F0E0014160A9
:1018C0002068016821F040010160A06A504509D1FB
:1018D0002068016821F4005101602068016841F42A
:1018E0000051016084F8519084F850800320BDE8D5
:1018F000F0872068806836EA0000D4D10DE0681CCB
:1019000006D0002DD7D0FEF7F9FEC01BA842D2D8D2
:101910002068806836EA0000F1D00020E7E77047D1
:1019200010B5FEF7F1FEBDE81040FFF7B3BC30B5CF
:101930008FB001210804CDE9001000240294022593
:101940000491CDE907504FF4E01009906846FFF785
:10195000B7F800B1FEE70F20CDE90A054FF480602B
:10196000CDE90C4002210AA80E94FEF76BFF00B1EE
:10197000FEE7FFF72BF84FF47A71B0FBF1F0FFF7B9
:1019800075FC0420FFF765FC00221146501EFEF78F
:1019900027FF0FB030BD00000D48016841F0010184
:1019A000016041680B4A1140416001680A4A1140D8
:1019B0000160016821F480210160416821F4FE0189
:1019C00041604FF41F0181600449C0030860704703
:1019D000001002400000FFF8FFFFF6FE08ED00E0F7
:1019E0002DE9F041044600680169E26821F44051A4
:1019F000114301612169A0680843616908432168B6
:101A0000CA6841F20C639A430243CA602068416984
:101A1000A26921F44071114341614C492068642559
:101A2000322688423CD1FEF7EFFF00EBC00101EB0C
:101A3000001061688900B0FBF1F7FEF7E5FF00EBED
:101A4000C00101EB00106168B0468900B0FBF1F005
:101A5000B0FBF5F06FF01801484307EB800106EB8F
:101A60000110B0FBF5F000F0F006FEF7CDFF00EB43
:101A7000C00101EB001061688900B0FBF1F0B0FB20
:101A8000F5F006EB0016FEF7BFFF00EBC00101EB1F
:101A9000001061688900B0FBF1F7FEF7B5FF3BE08D
:101AA000FEF79AFF00EBC00101EB001061688900AE
:101AB000B0FBF1F7FEF790FF00EBC00101EB001067
:101AC0006168B0468900B0FBF1F0B0FBF5F06FF053
:101AD0001801484307EB800106EB0110B0FBF5F05D
:101AE00000F0F006FEF778FF00EBC00101EB0010FC
:101AF00061688900B0FBF1F0B0FBF5F006EB001671
:101B0000FEF76AFF00EBC00101EB0010616889007D
:101B1000B0FBF1F7FEF760FF00EBC00101EB001036
:101B200061688900B0FBF1F0B0FBF5F06FF01801CF
:101B3000484307EB800108EB0110B0FBF5F021688A
:101B400000F00F0030448860BDE8F08100380140AB
:101B50002DE9F0471D4690460E460446FEF7CEFDA1
:101B600007465FEA08004FF000094FF0010808D06F
:101B700030E0681C05D095B1FEF7C0FDC01BA8423F
:101B80000DD82068006836EA0000F2D127E0681C12
:101B900020D025B1FEF7B2FDC01BA8421AD920689B
:101BA000C16821F08001C1602068C16821F0200176
:101BB000C1602068C16821F48071C16020684169FA
:101BC00021F00101416184F8398084F838900320C4
:101BD000BDE8F0872068006836EA0000D7D0002012
:101BE000F6E7FEE7014A024900F013B8351C000889
:101BF0003C00002002E008C8121F08C1002AFAD1E8
:101C000070477047002001E001C1121F002AFBD17C
:101C100070472DE9F04116460F460446002503E0C3
:101C20003946B047641C6D1C20780028F8D128463E
:101C3000BDE8F08113B54FF6FF73012269460248F3
:101C4000FFF788FB00981CBDB80400202DE9F04F79
:101C500092A18FB0D1E90001CDE90D01FEF75CFD45
:101C6000FFF765FEFFF7DEFBFFF742FC8E488D496C
:101C7000002401604FF4E131C0E901140C21C4607B
:101C8000C0E904418461C461FFF708FB00B1FEE7CD
:101C9000864902A8FEF79EFA4FF0FF3800286DD162
:101CA000FF2102A8FEF752FA3C238022804909A8AE
:101CB000FFF7C4FD012109A8FFF74EFC7D4DCDE9DA
:101CC000005400227CA3114609A8FFF788FD1826BE
:101CD0008027CDE9007600231A46754902A8FEF751
:101CE0000AFB012109A8FFF737FCCDE900540022C7
:101CF00075A3114609A8FFF772FDCDE900760C2304
:101D000000226B4902A8FEF7F6FA40231A466849FA
:101D100009A8FFF793FD012109A8FFF71DFC322553
:101D2000CDE9005400222823114609A8FFF71BFD26
:101D3000CDE9005400222823114609A8FFF79BFC97
:101D4000CDE9005400231A46282109A8FFF793FC87
:101D500040200090019018230022554902A8FEF768
:101D6000CAFA02A8FEF720FA4FF4FA6102A8FEF7B9
:101D700018FA584902A8FEF72DFA30B156A0FFF71D
:101D800031FF0FB04046BDE8F08F40231A46484966
:101D900009A8FFF753FD012109A8FFF7DDFBDDE9E5
:101DA0000601CDE9000100231A46514902A8FEF7B9
:101DB000A2FA02A8FEF7F8F9DDE90601CDE9000173
:101DC00000231A464A4902A8FEF795FA02A8FEF730
:101DD000EBF9FEF793FCDFF81CB106463C254FF407
:101DE0007A794FF4167A4FF00A0800BFFEF786FCA6
:101DF000811BB1FBF9F1B1FBFAF0B1FBF5F2303028
:101E00008DF834004046B2FBF0F308FB1322303269
:101E10008DF83520B1FBF5F205FB1212B2FBF0F2A2
:101E200030328DF83720B1FBF5F205FB1211B1FB12
:101E3000F8F208FB121030308DF83800202109A884
:101E4000FFF711FD602109A8FFF709FD012109A88D
:101E5000FFF707FD012109A8FFF77EFBCDE900B4DC
:101E60000DAB0422002109A8FFF7B9FC09A8FFF770
:101E7000E1FC074609A8FFF7DFFCCDE9000748238E
:101E800050220B4902A8FEF736FA02A8FEF78CF999
:101E90004FF4FA7102A8FEF784F9A7E730303A3020
:101EA0003000000000440040B8040020F81E000884
:101EB0006000002020000020652D506170657220B8
:101EC00044656D6F0000000048656C6C6F204B69C5
:101ED00074210000161F0008652D50617065722086
:101EE000696E6974206661696C65640A00000000AF
:101EF000341F0008280000202255AA55AA55AA110F
:101F000000000000000000001E1E1E1E1E1E1E1EE1
:101F100001000000000018000000000000000000A8
:101F20000000000000000F010000000000000000A1
:101F300000000000000000000000000000000000A1
:101F40000000000000000000000000000000000091
:101F50000000000000000000000000000000000081
:101F60000000000000000000000000000000000071
:101F7000380000000000000000000000000F00001A
:101F8000780000000000000000000000001F80003A
:101F9000F8000000000000000000000000FFC00387
:101FA000F8000000000000010000000001FFE01F39
:101FB000F800000000000000C000000003FF701FD8
:101FC000F0000000000000007E00000003FF7838F1
:101FD00000000000000000003F00000003FFF8F0D8
:101FE00000000000000000000FC0000003F0F8C176
:101FF000F80000000000000003F0000003F3F38F7E
:10200000FE0000000000000001F8000003FFF3BF25
:10201000FFC0000000030000003E000003FFFA7F45
:10202000FFF00000000F0000003FE00000E7FBFFB2
:10203000FFF0000000070000003FF00000E7FBFF9A
:10204000FFE0000000030000001FFC0000FFFBFF9A
:10205000FFE0000000030000000FFE00007FFBCF48
:10206000FFE00000000300000003FE00003FF9CF86
:10207000FFE00000000300000001FF80000FF1FFFF
:10208000FFE00000000300000000FFC000003DEF83
:10209000FFE000000003000000007FE00003FFF706
:1020A000FFC000000003000000003FE0003FFFFF12
:1020B000FF8000000003000000001FE0007EFFFF23
:1020C000FF0000000003000000000FE0003EFFF1F1
:1020D000FF0000000003000000000FE0003FFFBF12
:1020E000FC00000000030000000007F0003E7F3FFE
:1020F000F838000000030000000007F0007E7FC0F9
:10210000007C000000030000000007F0007E3FC0DC
:1021100001FE000000030000000007F0007F1FDF49
:10212000FFFF000000030000000003F0007F87EFC6
:10213000FFFF800000030000000003F0007FE3F1D8
:10214000FFFF000000030000000003F00187FC789F
:10215000FE00000000030000000003F00301F8FF90
:102160000000000000030000000003F00E0001FF6B
:102170008000000000030000000003F00C0003FFDB
:102180008000000000030000000003F01C000F9816
:102190000000000000030000000003F038007F9CF6
:1021A0000000000000030000000003F030003FDCEE
:1021B000000000000003000007FE07E030001FFEE3
:1021C00000000000000300000FFF87F070001FFCFC
:1021D00000000000000300001FFFC7F000000FFE1A
:1021E00000000000000300003FFFE7E000000FF0E8
:1021F00000000000000300007FFFF3E07FFFEFE03E
:102200000000000000030000FF9FFBCFFFFFC61887
:102210000000000000030003FFCFF9DFFFFFC0084C
:10222000000000000003000EFFDFFDFFFFFE0000C6
:1022300000000000000301F0FFFFFDFFFE000000B2
:1022400000000000000303F8FFFFFDFFFC0000009A
:1022500000000000000307FCFFDFFDFFF8000000A6
:102260000000000000030FFEC7DFFDFF800000003C
:102270000000000000033E7FF7DFFFFE300000009B
:102280000000000000033E7FF7DFCFF038000600BB
:102290000000000000037E7FFFFF9FE038001FC0AA
:1022A0000000000000037F1FFFFE3E003C003BE0FB
:1022B0000000000000037F8FFFFE7C003C003BE03D
:1022C0000000000000037F87FE3FF8003C007FF025
:1022D0000000000000037FA1F81FFC001C007CF040
:1022E0000000000000033FFFF00FFC000C007E7CAC
:1022F0000000000000033FFFF00FFE000C007F3CD9
:102300000000000000031FFFF00FFF000C003F80E3
:102310000000000000030FFFF00E7F800C003FC0A4
:1023200000000000000307FFF80E3FC00C001FF084
:1023300000000000000303FFF81E1FE00C000FF078
:10234000000000000003003FFE3F87E03C000FBE9E
:102350000000000000030047FFFFF0603C000FBFDB
:102360000000000000030031FFFFF8E038000FBF5D
:102370008000000000030611FFFDFFE038000F1F82
:102380008000000000030E13FFF9FFE030000E078D
:102390008000000000033CD7FDFDFFE030001CC7BB
:1023A00080000000000339EFFBFFFFE030003DFF3D
:1023B00080000000000373EFFBFFFFE060003DFFC3
:1023C00080000000000367EFFBFFFFC0C0003FFF7D
:1023D0008000000000038FF7E3FFFF80E0001BFF99
:1023E0008000000000039FF3E1FFE001C0003BFF1D
:1023F000C000000000033FF1F9FFC00380007FFF31
:10240000E000000000037FF1FDFF800700001FFFD8
:10241000F80000000003FFF1FFFF800F00003FFF06
:10242000FC0000000003FFE0FFFF000E00003FFF84
:102430009C0000000003FF800FFF0006000003F671
:102440007C0000000003FF001F7C00F8000009F082
:102450003C0000000003FE003F3801FC00001CF8B7
:102460001C0000000003FC00FF9003FE00003DFF85
:102470009C0000000003F800FFC00FFF000073FF86
:10248000CC0000000003F000FFE00FFF000061FF40
:10249000FC6000000003F001FFF01FFF0000C0FF20
:1024A000FFF000000007E001FFBFFFFF8000E00039
:1024B0007FF000000003C001FF3FFFFF8000C0006D
:1024C0003FF8000000018001FE7FFFFF80008000D8
:1024D0001FFC000000070000FE7FFFFF800080005F
:1024E0000CFC000000030000F07FFFFF00008000F4
:1024F000047C0000000300007E3FFFFC0001800020
:1025000003FC0000000300007E3FFFFE000180008E
:1025100001F00000000300003FDFBFFF80018000EA
:1025200000000000000300003FCFBFFFC00100001B
:1025300000000000000300007FCFFFFFE00100006B
:102540000000000000030000FFCFCFFFC0018000AB
:10255000000000000003001EFFEFC7FFC0010000E5
:1025600000000000000301FCFFE7F07F8003000093
:1025700000000000000707C0FFF3F8FF000F000095
:102580000000000000030F807FF3F9FE000E000042
:102590000000000000011F003FF3FBFE000C0000E4
:1025A000000000000001380003F9FBF3E018000010
:1025B000000000000001F0003CF9FBEFF0300000EB
:1025C000000000000001C0007DF9FBCFF0700000AA
:1025D0001800000000018000FFF8FBCFFCC00003E2
:1025E000F800000000018000FFFCFBFFFC0000077A
:1025F000F800000000018000FFDEFBFF7C00003FD0
:10260000FC00000000010000FFDEF3FF3C00007F43
:10261000FE00000000010000FFC2F3FF1C0000FFED
:10262000FE00000000010000FBE3FFFF3C0000FF94
:10263000FF00000000010000F9EFFFFE3C0000FF7A
:10264000FF00000000010000FCFFFFF9FC0000DCBF
:102650007F00000000010001FE7FFFE3FE0000FF9D
:10266000BF00000000010001FE3FFFC7FE0000FFA9
:102670009F00000000010003FF3FFFCFFF0000FFAD
:10268000BF000000000100FFFFCFFFFFFF8000FF41
:10269000FE00000000010FE07FFF87FFFF8000FFCA
:1026A000C000000000011F803FFF03FFCE0000FFBD
:1026B000000000000001F0000FFE01FC1E0000F011
:1026C000000000000001E07FC7FC01FC3E0000C1EB
:1026D000FFE000000001C1FFF7F801FFFC00018DE1
:1026E000FFF00000000187FFFBFC01FFF8000F1E58
:1026F000FFF8000000013F8003FC01FFF0000E7EA8
:102700007FFE00000001F80007FE01FFE2001E7FCF
:102710003FFC00000001E0FF9FDF03FFC6601CFFDD
:102720008FFE000000018FC0FF3FC7EFE3783E1F20
:10273000CFFF00000001DF80FE7FEFE7F1BC7F0FDD
:10274000CFFFC0000001FC00FDFFFFE3F19E3FC38F
:10275000E7FF00000001F801F1F9FFF1FDCF9FE173
:10276000FFFF000000018001F3F1FFF9FDC19FF8B8
:10277000FFE0000000010001FFE3FDFEFFC03FF0AD
:102780000003800000010000FFE3FDFF7FC07FC069
:102790000007800000010000FFE7FCFF0780FFCF7B
:1027A000FFFF000000010000FFEFCE7F07007E7FEB
:1027B000FFFE000000011FFEFFFFCE7F3E003E7FB8
:1027C000FFFC00000001FFFFFFF1CE3F3E003FFC99
:1027D00007F800000001FFFF3FE18E3F3E001FFCB5
:1027E00007F000000001E0000E038E3F3E000FFFE7
:1027F000F80000000001FFFF87FF8E3F1E0004FE6F
:102800003E0000000001FFFFC7FF8F3FBE0000FE3B
:102810001E0000000001FFFFC7FF8F9FFE0000FCAD
:102820003F800000000187FF8FFF8F9FFE0000792F
:10283000FFC00000000100063FFF8FDFFE00007FA9
:10284000FFC00000000100007FFF8F8FFC00001F11
:10285000FFE0000000018000FFFF8F1F0000000F5D
:10286000FFF000000001C001FFFF8E3F810000016A
:10287000FFE000000001E001FFFF8E7FC380000049
:10288000FF8000000001F800FFF38E7FE7C000002A
:102890007F0000000001FF80FFE78FFFC4E0000021
:1028A00000000000000187E1FFDF8FFFCE1C000069
:1028B000000000000001F1F8FFFF8FFFCFCF000004
:1028C000000000000001FE1CFFBE43E01FF380007B
:1028D000000000000001FF067F3E63C13FF1E00001
:1028E000000000000001FF833E3CF3811FF8F00070
:1028F000000000000001FFE18039FF0007FE7800C2
:10290000000000000001FFFE601FFE1C03FF1C0012
:102910000000000000010FFF3C1FFE6001FF8E0061
:1029200000000000000101FF9E0FFFC0003FC30038
:10293000000000000001007FC38FFD80003FE380A6
:10294000000000000001003FE1C7FC00003FF1C0B3
:10295000000000000001001FF1E3F8000007F06034
:10296000000000000001800FF1E1F0000003F830EA
:102970000000000000018001F83000000001FC3C74
:102980000000000000018000F81800000000FC0EAC
:102990000000000000018000FC0C00000000FE0FA1
:1029A00000000000000180007C0C000000007E0799
:1029B00080000000000180007C06000000003F0352
:1029C00080000000000180007E06000000001F81E2
:1029D00080000000000180001E03000000000F8046
:1029E000C0000000000180000E0100000000078010
:1029F00060000000000180000F018000000003C0A3
:102A000030000000000180000781C000000001C00C
:102A100038000000000180000781C000000000C0F5
:102A2000180000000001800007C0E0000000004026
:102A3000080000000001800003C0F000000000005A
:102A4000040000000001800003C0700000000000CE
:102A5000060000000001800001C07000F8000000C6
:102A6000020000000001800003C03000FFF0000001
:102A7000070000000001800003C03001FFF80000E3
:102A8000038000000001800001C03001FFFC000055
:102A9000038000000001800001C01801FFFE00005B
:102AA000038000000001800001C00800FFFF00005B
:102AB00001C000000001800001C0080067FF0000A5
:102AC00001C000000001800001C00800FFFF0000FD
:102AD00000C000000001800001800803FFBF8000EB
:102AE000004000000001800000000807FF3F800058
:102AF000004000000001800000000803FFBFC0008C
:102B0000004000000001800000000803FF3FC000FB
:102B1000004000000001800000000803F01FC0001A
:102B2000004000000001800000000803FFCFF0001B
:102B3000004000000001800000000801FFE7FC00E9
:102B400000C000000001800000000801FFF3FFF05A
:102B500001C000000001800000000801FFF8FFF83C
:102B60000180000000018000000008007FFC7FFF62
:102B70000380000000018000000008001FFF007FAC
:102B80008380000000018000000008003FFF801FDC
:102B9000C780000000018000000008003FFFFFFF29
:102BA000C300000000018000000008003FFFFFFF9D
:102BB000C400000000018000000008003FFFFFFF8C
:102BC000C400000000018000000018001FFFFFFF8C
:102BD000C400000000018000000038000FFFFFFF6C
:102BE000C0000000000180000000780003FFFFFF2C
:102BF000C0000000000180000000F800007FFFFF1F
:102C0000FC000000000180000001F800003FFFFF11
:102C1000FC0000000001800000003800003FFFF9C8
:102C2000FC0000000001800000001800003FFFF3DE
:102C3000FC0000000001800000000800003FFFE7EA
:102C4000FC0000000001800000000800003CFC1FA8
:102C5000F80000000001800000008C00007E007F72
:102C6000980000000001800000798C0007FF0FFF32
:102C70009C0000000001800000FCC6000FFF7FFFE9
:102C8000780000000001800001F846000FFF7FFE81
:102C9000780000000001800003FC07000FFF7FFEAA
:102CA000780000000000800007FE07C00FFF7FFED5
:102CB000600000000000800007F9E7E007FF7FF8F0
:102CC000C00000000000800003E3F3F003FFFFF109
:102CD000C0000000000080007FC3F33801FFFFF157
:102CE0008000000000008000FFDFF31C007FFFE396
:102CF0008000000000008000FF9FF38E003FFFE790
:102D00008000000000008000FE33FBCF001FFFCFDB
:102D10000000000000008001FE3FF1CF000FFFCF58
:102D200000000000000080000C7FCDE3800FFFDF7B
:102D3000000000000000800101FC8E7F800FFF9FDB
:102D4000000000000000800FF9FC1E3F800FF3BF61
:102D5000000000000000800FFDFC3E3F800FE1BF3F
:102D6000000000000000800FFCFC3F3F800FC13FCF
:102D7000000000000000801FE5F83B9F800FC23F6D
:102D8000800000000000801FCFF033DFC0039C0FE5
:102D900080000000000080000E0039D9C0003863B8
:102DA000C00000000000800FFE000FEEF000FFF3F7
:102DB000F00000000000801FFE0007EE7801FFFF1A
:102DC000F00000000000001FFE0007EE3C01FFFFC6
:102DD000F00000000000001FFE0007EF3C01FFFFB5
:102DE000F00000000000001F7C0000EFFC01FFFF6E
:102DF000F00000000000001E1C00006FFC01FFFF3F
:102E0000C00000000000000000000033FE00FFFFD3
:102E1000C00000000000000000000003FE00FFFFF3
:102E2000800000000000000000000007FE003FFFDF
:102E3000800000000000000000000007FE001FFFEF
:102E4000800000000000000000000003FC0003FF01
:102E5000800000000000000000000001FE0003FFF1
:102E60008000000000000000000000007E0003FF62
:102E7000800000000000000000000000000003FFD0
:102E8000000000000000000000000000000001FE43
:102E900000000000000000000000000000000078BA
:102EA00000000000000000000000000000000030F2
:102EB0000000000000000000000000000000000012
:102EC0000000000000000000000000000000000002
:102ED00000000000000000000000000000000000F2
:102EE000001010101010000010000000006C484886
:102EF0000000000000000000001414287C287C283A
:102F00005050000000103840403848701010000049
:102F1000002050200C700814080000000000001869
:102F20002020544834000000001010101000000051
:102F30000000000000080810101010101008080011
:102F400000202010101010101020200000107C1005
:102F500028280000000000000000101010FE1010D3
:102F600010000000000000000000001810302000D9
:102F700000000000007C00000000000000000000D5
:102F80000000003030000000000404080810102089
:102F900020400000003844444444444438000000C9
:102FA00000301010101010107C0000000038440495
:102FB000081020447C000000003844041804044435
:102FC00038000000000C141424447E040E0000009D
:102FD000003C20203804044438000000001C20403D
:102FE0007844444438000000007C44040808081079
:102FF00010000000003844443844444438000000C5
:1030000000384444443C04087000000000000030D4
:1030100030000030300000000000001818000018D8
:103020003020000000000C10608060100C000000D8
:10303000000000007C007C00000000000000C020B8
:1030400018041820C0000000000018240408100014
:10305000300000003844444C54544C404438000084
:103060000030102828287C44EE00000000F844447A
:1030700078444444F8000000003C44404040404450
:103080003800000000F0484444444448F000000088
:1030900000FC445070504044FC000000007E222898
:1030A0003828202070000000003C4440404E44443A
:1030B0003800000000EE44447C444444EE0000002C
:1030C000007C1010101010107C000000003C08085C
:1030D000084848483000000000EE4448507048441A
:1030E000E600000000702020202024247C00000046
:1030F00000EE6C6C54544444EE00000000EE646436
:103100005454544CEC0000000038444444444444BB
:1031100038000000007824242438202070000000AB
:103120000038444444444444381C000000F84444FB
:1031300044784844E200000000344C403804046401
:103140005800000000FE921010101010380000000F
:1031500000EE4444444444443800000000EE44443B
:10316000282828101000000000EE44445454545401
:103170002800000000C6442810102844C6000000A3
:1031800000EE44282810101038000000007C44088D
:10319000101020447C000000003820202020202037
:1031A00020203800004020202010100808080000CF
:1031B0000038080808080808080838000010102817
:1031C00044000000000000000000000000000000BB
:1031D000000000FE001008000000000000000000D9
:1031E00000000038443C44443E00000000C0405809
:1031F00064444444F80000000000003C4440404463
:1032000038000000000C04344C4444443E000000EC
:1032100000000038447C40403C000000001C207C42
:10322000202020207C000000000000364C44444454
:103230003C04380000C0405864444444EE000000A0
:1032400000100070101010107C00000000100078BA
:10325000080808080808700000C0405C4870504822
:10326000DC00000000301010101010107C00000076
:10327000000000E854545454FE000000000000D840
:1032800064444444EE0000000000003844444444D8
:1032900038000000000000D8644444447840E00056
:1032A000000000364C4444443C040E000000006C16
:1032B000302020207C0000000000003C4438044402
:1032C000780000000000207C202020221C0000004C
:1032D000000000CC4444444C36000000000000EEE6
:1032E0004444282810000000000000EE44545454C8
:1032F00028000000000000CC48303048CC0000001E
:10330000000000EE44242818101078000000007C13
:10331000481020447C0000000008101010102010FD
:1033200010100800001010101010101010100000E5
:1033300000201010101008101010200000000000D5
:103340000024580000000000000000000000000001
:10335000000000000000000000000000000000006D
:10336000000000000000000000000000000000005D
:10337000000000000000000000000000000000004D
:10338000000000000000000000000000000000003D
:1033900000000000000003800003800003800003A1
:1033A000800003800003800003800003800003800E
:1033B0000001000001000000000000000003800088
:1033C000038000000000000000000000000000007A
:1033D00000000000000000000000000000000000ED
:1033E000000E70000E70000E70000420000420001B
:1033F0000420000420000000000000000000000085
:1034000000000000000000000000000000000000BC
:1034100000000000000000000000000000000000AC
:103420000000000000000660000660000660000664
:1034300060000660003FF8003FF8000660000CC026
:10344000003FF8003FF8000CC0000CC0000CC000AA
:103450000CC0000CC00000000000000000000000D4
:10346000000000000000000000000001800001805A
:103470000007B0000FF0001870001870001C00006A
:103480000F800007E00000F0001830001C30001C26
:1034900070001FE0001BC00001800001800001805F
:1034A000000180000000000000000000000000009B
:1034B0000000000000000780000FC0001CE00018A2
:1034C00060001860001CE0000FF80007E0001FF02B
:1034D0000007380006180006180007380003F0003F
:1034E00001E00000000000000000000000000000FB
:1034F00000000000000000000000000000000000CC
:103500000000000003F00007F0000C60000C000059
:103510000C00000600000700000F9C001DFC0018B6
:10352000F0001870000FFC0007DC00000000000035
:10353000000000000000000000000000000000008B
:103540000000000000000000000380000380000372
:1035500080000100000100000100000100000000E7
:10356000000000000000000000000000000000005B
:10357000000000000000000000000000000000004B
:103580000000000000000000000000000000001823
:103590000000380000700000F00000E00000E000D3
:1035A00001C00001C00001C00001C00001C0000155
:1035B000C00000E00000E000007000007000003873
:1035C00000001800000000000000000000000000E3
:1035D0000000000000001800001C00000E00000E9B
:1035E0000000070000070000038000038000038044
:1035F0000003800003800003800007000007000034
:103600000F00000E00001C00001800000000000069
:103610000000000000000000000000000000018029
:10362000000180000180001DB8001FF80007E000C5
:1036300003C00003C0000660000660000000000038
:10364000000000000000000000000000000000007A
:10365000000000000000000000000000000000006A
:1036600000000000000000000000000001800001D8
:1036700080000180000180000180003FFC003FFCD1
:1036800000018000018000018000018000018000B5
:10369000000000000000000000000000000000002A
:1036A000000000000000000000000000000000001A
:1036B000000000000000000000000000000000000A
:1036C00000000000000000000000000000000000FA
:1036D000000000E00000C00001C000018000018087
:1036E00000030000030000000000000000000000D4
:1036F00000000000000000000000000000000000CA
:1037000000000000000000000000001FF8001FF88B
:1037100000000000000000000000000000000000A9
:103720000000000000000000000000000000000099
:103730000000000000000000000000000000000089
:103740000000000000000000000000000000000079
:103750000000000000000000000000000000000069
:10376000000003C00003C00003C000000000000010
:103770000000000000000000000000000000000049
:103780000018000018000038000030000070000031
:10379000600000600000C00000C0000180000180E7
:1037A000000300000300000600000600000E0000F9
:1037B0000C00001C000018000018000000000000B1
:1037C000000000000000000000000000000003C036
:1037D0000007E0000C30000C30001818001818002A
:1037E0001818001818001818001818001818000CDD
:1037F00030000C300007E00003C0000000000000B3
:1038000000000000000000000000000000000000B8
:103810000000000000000080000780001F80001DE5
:103820008000018000018000018000018000018093
:10383000000180000180000180000180001FF8006D
:103840001FF8000000000000000000000000000061
:10385000000000000000000000000000000007C0A1
:10386000001FF00038300030180030180000180039
:1038700000300000600001C0000380000600000C62
:1038800000001800003FF8003FF8000000000000B2
:103890000000000000000000000000000000000028
:1038A00000000000000003C0000FE0000C700000EA
:1038B000300000300000600003C00003E000007032
:1038C000000018000018000018001838001FF00051
:1038D0000FC0000000000000000000000000000019
:1038E000000000000000000000000000000000E0F8
:1038F0000001E00001E000036000066000066000D7
:103900000C60000C60001860003060003FF8003F61
:10391000F80000600003F80003F800000000000059
:103920000000000000000000000000000000000097
:103930000000000000001FF0001FF0001800001839
:1039400000001800001BC0001FF0001C3000001811
:10395000000018000018000018003030003FF00090
:103960000FC0000000000000000000000000000088
:10397000000000000000000000000000000000F84F
:103980000003F8000700000E00000C000018000003
:103990001BC0001FF0001C30001818001818001879
:1039A00018000C38000FF00003E0000000000000D9
:1039B0000000000000000000000000000000000007
:1039C0000000000000001FF8001FF8001818001881
:1039D000380000300000300000700000600000601F
:1039E0000000E00000C00000C00001C00001800035
:1039F0000180000000000000000000000000000046
:103A0000000000000000000000000000000007E0CF
:103A1000000FF0001C38001818001818000C3000B7
:103A200007E00007E0000C30001818001818001814
:103A300018001C38000FF00007E000000000000034
:103A40000000000000000000000000000000000076
:103A500000000000000007C0000FF0001C3000183C
:103A600018001818001818000C38000FF80003D8B8
:103A70000000180000300000700000E0001FC000CF
:103A80001F00000000000000000000000000000017
:103A90000000000000000000000000000000000026
:103AA0000000000000000000000003C00003C00090
:103AB00003C0000000000000000000000000000043
:103AC000000003C00003C00003C0000000000000AD
:103AD00000000000000000000000000000000000E6
:103AE00000000000000000000000000000000000D6
:103AF000000000F00000F00000F0000000000000F6
:103B00000000000000000000E00001C00001800093
:103B1000018000030000020000000000000000001F
:103B20000000000000000000000000000000000095
:103B300000000000001C00003C0000F00003C0007A
:103B40000F00003C0000F000003C00000F000003EC
:103B5000C00000F000003C00001C0000000000005D
:103B60000000000000000000000000000000000055
:103B70000000000000000000000000000000000045
:103B800000000000007FFC007FFC0000000000003F
:103B9000007FFC007FFC000000000000000000002F
:103BA0000000000000000000000000000000000015
:103BB0000000000000000000000000000000000005
:103BC000000000007000007800001E000007800068
:103BD00001E000007800001E0000780001E000070E
:103BE00080001E000078000070000000000000004F
:103BF00000000000000000000000000000000000C5
:103C000000000000000000000007C0000FE00018E6
:103C1000700018300018300000700000E00003C091
:103C20000003800003000000000000000007000007
:103C3000070000000000000000000000000000007D
:103C4000000000000000000000000000000003E091
:103C50000007F0000E38000C180018780018F80063
:103C600019D80019980019980019980018F8001828
:103C700078001800000C00000E180007F80003E0A0
:103C80000000000000000000000000000000000034
:103C90000000000000000000001F80001FC00001A5
:103CA000C0000360000360000630000630000C30E6
:103CB000000FF8001FF800180C00300C00FC7F000B
:103CC000FC7F000000000000000000000000000079
:103CD00000000000000000000000000000000000E4
:103CE000007FE0007FF00018380018180018180056
:103CF0001838001FF0001FF800181C00180C0018DE
:103D00000C00180C007FF8007FF00000000000009D
:103D100000000000000000000000000000000000A3
:103D200000000000000000000003EC000FFC001C7D
:103D30001C00180C00300C00300000300000300077
:103D400000300000300000180C001C1C000FF800B0
:103D500003F0000000000000000000000000000070
:103D60000000000000000000000000000000000053
:103D7000007FC0007FF000183800181800180C00F1
:103D8000180C00180C00180C00180C00180C001867
:103D900018001838007FF0007FE0000000000000ED
:103DA0000000000000000000000000000000000013
:103DB0000000000000000000007FF8007FF80018FD
:103DC00018001818001998001980001F80001F8023
:103DD000001980001998001818001818007FF800C2
:103DE0007FF800000000000000000000000000005C
:103DF00000000000000000000000000000000000C3
:103E0000003FFC003FFC000C0C000C0C000CCC0034
:103E10000CC0000FC0000FC0000CC0000CC0000C94
:103E200000000C00003FC0003FC000000000000088
:103E30000000000000000000000000000000000082
:103E400000000000000000000003EC000FFC001C5C
:103E50001C00180C00300C0030000030000030FE58
:103E60000030FE00300C00380C001C1C000FFC0061
:103E700003F000000000000000000000000000004F
:103E80000000000000000000000000000000000032
:103E9000007E7E007E7E001818001818001818009A
:103EA0001818001FF8001FF800181800181800183C
:103EB00018001818007E7E007E7E000000000000C2
:103EC00000000000000000000000000000000000F2
:103ED0000000000000000000001FF8001FF80001B3
:103EE00080000180000180000180000180000180CD
:103EF000000180000180000180000180001FF800A7
:103F00001FF800000000000000000000000000009A
:103F100000000000000000000000000000000000A1
:103F20000007FE0007FE00003000003000003000F7
:103F300000300000300030300030300030300030D1
:103F400030003060003FE0000F8000000000000003
:103F50000000000000000000000000000000000061
:103F60000000000000000000007F3E007F3E0018BF
:103F7000300018600018C0001980001B80001FC0AE
:103F8000001CE0001870001830001838007F1F0077
:103F90007F1F000000000000000000000000000083
:103FA0000000000000000000000000000000000011
:103FB000007F80007F80000C00000C00000C0000DF
:103FC0000C00000C00000C00000C0C000C0C000C91
:103FD0000C000C0C007FFC007FFC000000000000C7
:103FE00000000000000000000000000000000000D1
:103FF000000000000000000000F00F00F81F003873
:104000001C003C3C003C3C00366C00366C0033CC61
:104010000033CC00318C00300C00300C00FE7F00EF
:10402000FE7F000000000000000000000000000013
:104030000000000000000000000000000000000080
:104040000078FE0078FE001C18001E18001F1800E3
:104050001B18001B980019D80018D80018F8001871
:1040600078001838007F18007F180000000000005A
:104070000000000000000000000000000000000040
:1040800000000000000000000003C0000FF0001C52
:104090003800181800381C00300C00300C00300CB0
:1040A00000300C00381C001818001C38000FF000FD
:1040B00003C000000000000000000000000000003D
:1040C00000000000000000000000000000000000F0
:1040D000003FF0003FF8000C1C000C0C000C0C0022
:1040E0000C0C000C18000FF8000FE0000C00000C86
:1040F00000000C00003FC0003FC0000000000000B6
:1041000000000000000000000000000000000000AF
:1041100000000000000000000003C0000FF0001CC1
:104120003800181800381C00300C00300C00300C1F
:1041300000300C00381C001818001C38000FF0006C
:1041400007C00007CC000FFC000C38000000000086
:10415000000000000000000000000000000000005F
:10416000007FE0007FF000183800181800181800D1
:104170001838001FF0001FC00018E0001870001869
:1041800030001838007F1E007F0E00000000000085
:10419000000000000000000000000000000000001F
:1041A00000000000000000000007D8000FF8001C0D
:1041B00038001818001818001E00000FC00003F087
:1041C000000078001818001818001C38001FF000B4
:1041D0001BE00000000000000000000000000000E4
:1041E00000000000000000000000000000000000CF
:1041F000003FFC003FFC00318C00318C00318C0012
:10420000318C0001800001800001800001800001EC
:1042100080000180000FF0000FF00000000000009F
:10422000000000000000000000000000000000008E
:104230000000000000000000007E7E007E7E00186E
:104240001800181800181800181800181800181866
:10425000001818001818001818000C30000FF00093
:1042600003C000000000000000000000000000008B
:10427000000000000000000000000000000000003E
:10428000007F7F007F7F00180C000C18000C1800C6
:104290000C180006300006300003600003600003C5
:1042A000600001C00001C0000080000000000000AC
:1042B00000000000000000000000000000000000FE
:1042C000000000000000000000FE3F80FE3F803044
:1042D000060030060030860019CC0019CC001B6C9B
:1042E000001B6C001E7C000E38000E38000C1800FD
:1042F0000C1800000000000000000000000000009A
:1043000000000000000000000000000000000000AD
:10431000007E7E007E7E001818000C3000066000D3
:1043200003C00001800001800003C0000660000C93
:1043300030001818007E7E007E7E00000000000025
:10434000000000000000000000000000000000006D
:104350000000000000000000007C7E007C7E001851
:1043600018000C300006600006600003C0000180E9
:10437000000180000180000180000180000FF0003A
:104380000FF000000000000000000000000000002E
:10439000000000000000000000000000000000001D
:1043A000001FF8001FF800181800183000186000EF
:1043B00018C0000180000300000618000C18001847
:1043C00018003018003FF8003FF80000000000001F
:1043D00000000000000000000000000000000000DD
:1043E00000000000000001F00001F0000180000169
:1043F00080000180000180000180000180000180B8
:104400000001800001800001800001800001800027
:1044100001800001800001F00001F00000000000B8
:1044200000000000000000001800001800001C0040
:10443000000C00000E000006000006000003000053
:1044400003000001800001800000C00000C00000E7
:1044500060000060000070000030000038000018AC
:104460000000180000000000000000000000000034
:104470000000000000000F80000F8000018000019C
:104480008000018000018000018000018000018027
:104490000001800001800001800001800001800097
:1044A0000180000180000F80000F800000000000EC
:1044B000000000000000000000000000800001C0BB
:1044C0000003E0000770000630000C1800180C0014
:1044D00010040000000000000000000000000000C8
:1044E00000000000000000000000000000000000CC
:1044F00000000000000000000000000000000000BC
:1045000000000000000000000000000000000000AB
:10451000000000000000000000000000000000009B
:10452000000000000000000000000000000000008B
:10453000000000000000000000000000000000007B
:104540000000FFFF00FFFF000000000300000380E9
:104550000000E0000060000000000000000000001B
:10456000000000000000000000000000000000004B
:10457000000000000000000000000000000000003B
:10458000000000000000000000000000000000002B
:10459000000000000000000000000000000000001B
:1045A00000000FC0001FE00000300000300007F0E6
:1045B000001FF0003830003030003070001FFC0069
:1045C0000FBC000000000000000000000000000020
:1045D0000000000000000000000000000000780063
:1045E000007800001800001800001BE0001FF80011
:1045F0001C1800180C00180C00180C00180C0018DF
:104600000C001C18007FF8007BE000000000000098
:10461000000000000000000000000000000000009A
:10462000000000000000000000000000000000008A
:10463000000003EC000FFC001C1C00380C00300CC8
:1046400000300000300000380C001C1C000FF80087
:1046500003F0000000000000000000000000000067
:1046600000000000000000000000000000000078D2
:104670000000780000180000180007D8001FF8009C
:10468000183800301800301800301800301800308A
:1046900018001838001FFE0007DE000000000000B0
:1046A000000000000000000000000000000000000A
:1046B00000000000000000000000000000000000FA
:1046C000000007E0001FF800181800300C003FFC45
:1046D000003FFC00300000300000180C001FFC0000
:1046E00007F00000000000000000000000000000D3
:1046F000000000000000000000000000000001FCBD
:104700000003FC000600000600003FF8003FF80030
:104710000600000600000600000600000600000675
:1047200000000600003FF0003FF000000000000025
:104730000000000000000000000000000000000079
:104740000000000000000000000000000000000069
:10475000000007DE001FFE00183800301800301877
:10476000003018003018003018001838001FF8000A
:1047700007D8000018000018000038000FF0000FE4
:10478000C0000000000000000000000000007800F1
:10479000007800001800001800001BE0001FF00067
:1047A0001C380018180018180018180018180018DD
:1047B00018001818007E7E007E7E000000000000B9
:1047C00000000000000000000000000000000000E9
:1047D00000000000000001800001800000000000D7
:1047E00000001F80001F8000018000018000018008
:1047F000000180000180000180000180003FFC007A
:104800003FFC00000000000000000000000000006D
:10481000000000000000000000000000000000C0D8
:104820000000C0000000000000001FF0001FF000AA
:104830000030000030000030000030000030000088
:104840003000003000003000003000003000003048
:10485000000070001FE0001F80000000000000004A
:104860000000000000003C00003C00000C00000CB8
:1048700000000CF8000CF8000CC0000D80000F8048
:10488000000F00000F80000DC0000CE0003C7C0019
:104890003C7C000000000000000000000000000060
:1048A00000000000000000000000000000001F8069
:1048B000001F800001800001800001800001800055
:1048C0000180000180000180000180000180000162
:1048D00080000180003FFC003FFC00000000000061
:1048E00000000000000000000000000000000000C8
:1048F00000000000000000000000000000000000B8
:104900000000F77800FFFC0039CC00318C00318CBE
:1049100000318C00318C00318C00318C00FDEF00B7
:10492000FDEF00000000000000000000000000009B
:104930000000000000000000000000000000000077
:10494000000000000000000000007BE0007FF0009D
:104950001C3800181800181800181800181800182B
:1049600018001818007E7E007E7E00000000000007
:104970000000000000000000000000000000000037
:104980000000000000000000000000000000000027
:10499000000003C0000FF0001C3800381C00300C71
:1049A00000300C00300C00381C001C38000FF000E8
:1049B00003C0000000000000000000000000000034
:1049C00000000000000000000000000000000000E7
:1049D000000000000000000000007BE0007FF80005
:1049E0001C1800180C00180C00180C00180C0018EB
:1049F0000C001C18001FF8001BE000180000180035
:104A0000001800007F00007F000000000000000090
:104A10000000000000000000000000000000000096
:104A2000000007DE001FFE001838003018003018A4
:104A3000003018003018003018001838001FF80037
:104A400007D80000180000180000180000FE000041
:104A5000FE00000000000000000000000000000058
:104A6000000000000000000000003E78003EFC0056
:104A700007CC000700000600000600000600000644
:104A800000000600003FF0003FF0000000000000C2
:104A90000000000000000000000000000000000016
:104AA0000000000000000000000000000000000006
:104AB000000007F8000FF8001818001818001F80F1
:104AC000000FF00000F8001818001838001FF00060
:104AD0001FE00000000000000000000000000000D7
:104AE00000000000000000000000000000000C00BA
:104AF000000C00000C00000C00003FF0003FF00034
:104B00000C00000C00000C00000C00000C00000C5D
:104B100000000C1C0007FC0003F000000000000077
:104B20000000000000000000000000000000000085
:104B30000000000000000000000000000000000075
:104B400000007878007878001818001818001818F5
:104B5000001818001818001818001838000FFE0068
:104B600007DE000000000000000000000000000060
:104B70000000000000000000000000000000000035
:104B8000000000000000000000007C3E007C3E00B1
:104B90001818001818000C30000C300006600006D1
:104BA000600007E00003C00003C000000000000038
:104BB00000000000000000000000000000000000F5
:104BC00000000000000000000000000000000000E5
:104BD0000000783C00783C0031180033980033988E
:104BE000001AB0001EF0001EF0001C60000C6000F7
:104BF0000C60000000000000000000000000000049
:104C000000000000000000000000000000000000A4
:104C1000000000000000000000003E7C003E7C0020
:104C20000C300006600003C00001800003C00006D5
:104C300060000C30003E7C003E7C00000000000064
:104C40000000000000000000000000000000000064
:104C50000000000000000000000000000000000054
:104C600000007E1F007E1F00180C000C18000C189E
:104C70000006300006300003600003E00001C000C1
:104C800000C0000180000180000300003FC0003F21
:104C9000C000000000000000000000000000000054
:104CA000000000000000000000001FF8001FF800D6
:104CB00018300018600000C00001800003000006EA
:104CC00018000C18001FF8001FF80000000000007A
:104CD00000000000000000000000000000000000D4
:104CE00000000000000000E00001E0000180000181
:104CF00080000180000180000180000180000380AD
:104D00000007000003800001800001800001800096
:104D100001800001800001E00000E00000000000D0
:104D20000000000000000000000000000000018002
:104D300000018000018000018000018000018000EE
:104D400001800001800001800001800001800001DD
:104D5000800001800001800001800001800001804E
:104D600000018000000000000000000000000000C2
:104D70000000000000000700000780000180000123
:104D8000800001800001800001800001800001C0DE
:104D90000000E00001C000018000018000018000EF
:104DA0000180000180000780000700000000000073
:104DB00000000000000000000000000000000000F3
:104DC00000000000000000000000000000000000E3
:104DD0000E00001F18003BB80031F00000E000009A
:104DE00000000000000000000000000000000000C3
:104DF00000000000000000000000000000000000B3
:104E0000000000000000000001020304060708097A
:104E10000000000001020304384E000800000020DA
:104E200040000000F41B0008784E000840000020FD
:104E3000B8140000041C0008000C014040000000F1
:104E40000008014000020000001001408000000046
:104E50000008014000010000D42E000807000C00EB
:104E6000483300081100180000A24A0400000000A6
:084E700000000000000000003A
:04000005080000ED02
:00000001FF
